:020000000C945E
:100002007A000C9400000C9400000C9400000C94F4
:1000120000000C9400000C9400000C9400000C945E
:1000220000000C9400000C9400000C94AA000C94A4
:1000320000000C94CE000C9400000C9400000C9470
:1000420000000C9400000C9400000C9400000C942E
:10005200000000004154200D0A0041542B5341502E
:1000620042523D332C312C22436F6E7479706522DB
:100072002C2247505253220041542B53415042529A
:100082003D332C312C2241504E222C227A61702E8B
:100092007669766F2E636F6D2E6272220041542B49
:1000A20053415042523D332C312C2255534552225A
:1000B2002C227669766F220041542B5341504252D2
:1000C2003D332C312C22505744222C227669766FF4
:1000D20022002D4E414E000001002D4E414E00499E
:1000E2004E4600000100020054000100A001DA00A7
:1000F2000000F894EE27ECBBF1E0FBBFEBBFE5BFDD
:10010200F8E1F1BDE1BD8DE0A2E0BB27ED938A9558
:10011200E9F780E094E0A0E6ED930197E9F7E6EED7
:10012200F0E085919591009761F0A591B5910590C8
:100132001590BF01F00105900D920197E1F7FB01C7
:10014200F0CFEFE5EDBFE4E0EEBFC0E6D1E00C9406
:10015200FF00EA93FA93EFB7EA931A930A931BB15B
:100162000CB1E12FEC71B1F40D3019F400E0689498
:1001720021F8E52D5394F0E0E05AFE4F0083E0E2CF
:10018200E51509F455247394E0E2E71519F4772490
:10019200689420F80991199112C0EA93FA93EFB783
:1001A200EA93882061F08A94E92D9394F0E0E05874
:1001B200FE4FE081ECB9E0E2E91509F49924E991F6
:1001C200EFBFF991E9911895E0E2E815E9F3F894A7
:1001D200882011F45D990DC0E62D6394F0E0E0589B
:1001E200FE4FA881A083E0E2E61509F46624839419
:1001F20002C0E881ECB9789421960895AA97E0E0CC
:10020200E8BBE1E0E7BBE0E0E5BBE4BBE2BBE1BBAE
:10021200E3BFE2BFEFBDEEBDEDBDECBDE7BDE6BDA8
:10022200EBBDEABDE9BDE8BDE2BDE5BDE4BDE3BDB0
:10023200E5BFE9BFEBB9E8EDEAB9E6E8E0BDE0E029
:10024200E0BDEFE5E9B9E0E8E8B9E0E0E0BFE6B932
:10025200E0E4E7B9E4E8E6B9E0E0EDB9E6BF0E9420
:10026200BF06E0E0EA93EA93EA9341D3E6E5F0E0E1
:100272000E94C605ECE5F0E00E94C605EAE7F0E060
:100282000E94C605EFE9F0E00E94C605EAEBF0E045
:10029200FA93EA9380E004D32296AA96FFCFEA81EA
:1002A200EA9392DFA881B981ED91FD913196FE9397
:1002B200EE933CC32497E0E0E883E983E0E8EA8335
:1002C200EFE3EB830E945D09EE85FF85EF3FAFEF21
:1002D200FA0749F4E885F985FA93EA93E4EDF0E048
:1002E2000E94D205B8C0EF3FAFE7FA0749F4E885AC
:1002F200F985FA93EA93E5EDF0E00E94D205ABC0EE
:10030200AB85A73010F0E6E0EB871B85E12F11509B
:10031200E03019F00E94D605F9CFEC85FD856E8597
:100322007F850E94570921F430E00E94D6052EC035
:100332003B850E94E50509F010F40C94AB010E9484
:10034200D6050E94E50528F00E94F0050E94F505F9
:10035200F8CF0DC00E94E50540F40E94F0050E940E
:1003620001060E9408063150F5CF0E94D605EC85A1
:10037200FD856E857F850E940D060E9408060E94FB
:10038200E50520F00E94F0050E94F50510E0EB85DE
:10039200E117A8F1AC81BD818E819F810E94140674
:1003A2000E940D060E9445090E94E804EC83FD8329
:1003B2006E837F830E94F0050E9461080E945007AD
:1003C2000E2F0E941B060E942206FF276627772710
:1003D2000E948907AC81BD818E819F810E94130892
:1003E2000E94F0050E9427060E940806E12F1F5F67
:1003F200E03069F60E941B06EEE2EC93C8CF0E9441
:100402002C063197AA85A08330302CF43195A8852B
:10041200B985EDE203C0A885B985EBE2EC930E94B1
:100422002C060E942C063197BF01A32FEAE00E94FE
:10043200EB08E05DDB01EC930E942C063197BF01D3
:10044200A32FEAE00E941509E05DDB01EC93A88589
:10045200B985E0E0EC930E94640960960895EF97F5
:1004620061970E945B0910E0FE01E85AFF4F01907C
:10047200F081E02DE887F987FE01EA5AFF4F0190EB
:10048200F081E02DEE83FF83AE81BF81E0E0F0E0FA
:10049200ED93FC93DE01A45ABF4FED91FD9131968D
:1004A200FE93EE933197E4912E2FE03011F40C94E9
:1004B2004804E12FE03039F4253211F411E002C092
:1004C2000E943206E3C1E130C1F4253219F40E94E0
:1004D2003206DBC112E0E0E0ED8B00E02D3211F4D8
:1004E20001E0D4C12B3219F4EBE2ED8BCFC1203203
:1004F20019F4E0E2ED8BCAC102C0E23039F450E0F7
:1005020013E0203311F40068C1C102C0E33091F45A
:10051200203310F02A3308F007C0AAE05A9F502D6A
:10052200E22FE0535E0FB2C140E02E3211F414E02C
:10053200ADC10FC0E43099F4203310F02A3308F033
:1005420008C00062AAE04A9F402DE22FE0534E0FFE
:100552009DC12C3619F4026015E098C104C0E53043
:1005620011F00C944704E22FE33659F40E943B0643
:100572000E9442060E943B06A481AA930E94490659
:1005820084C1E53411F0E53609F404C0E63611F011
:100592000C941503FE017696EE87FF870E945106A2
:1005A2000E9435090E9458060E945D06AD85AA2365
:1005B20022F0AD89AB3249F017C00E945F060E945B
:1005C2001D070E945806EDE2ED8B07FF05C0ED897D
:1005D200EA930E94490608C0EE85FF853196EE87B0
:1005E200FF873197AD89A08305FF46E0263661F487
:1005F2000E945F060E9445094A93EB89FC89FA939F
:10060200EA930E94FF040BC00E945F060E94450904
:100612004A932A93EC89FD89FA93EA934BDEFE0111
:1006220076960E9464061EC0E33739F40E945D0686
:100632000E946C060E9464060EC0E037C1F40E945C
:100642005D060E946C06EE87FF87FA93EA930E948A
:10065200AE041E2F08600F77403011F0411708F0EA
:1006620001C0142F40E0E0E0EC8B30E06EC0E436D5
:1006720011F0E93611F4046002C0E537A1F4EAE0B2
:10068200EC8B01FF08C0E0E0FAEC6AE97BE30E9430
:1006920071061AE023C0E0E1F7E260E070E00E9438
:1006A200710615E01BC0E83511F4086004C0E83794
:1006B20011F00C944604E0E1EC8B01FF08C0E0E08D
:1006C200F0E060E070E10E94710618E007C0E0E02F
:1006D200F0E160E070E00E94710614E0403011F039
:1006E2000F7701C041E001FF08C00E945D060E9431
:1006F200510614960E9435090FC002FF07C00E94DE
:100702005D060E946C060E94D80806C00E945D0623
:100712000E946C0666277727EA87FB876C877D87AE
:1007220002FF12C0AD85AA2342F40E945F060E9416
:10073200CA080E945806EDE2ED8BED89E03019F00F
:100742001F5F4F5F01C00B7F342F00FD14C01517D0
:1007520010F4351708F00FC007FF08C002FF04C0ED
:100762000B7F2D89115001C020E301C020E20E94BD
:1007720032065150ECCF141790F4006102FF06C00C
:100782000E94760609F0515011504150E0E3EA937D
:100792000E944906503009F051504150ECCF312FA0
:1007A200EC89E030B9F43030A1F003FF06C0EE85E9
:1007B200FF852591EE87FF8705C0AE85BF852D9108
:1007C200AE87BF870E943206503009F05150315037
:1007D200EACF51C00E948A060E94F0082E2F2A30CA
:1007E20030F003FF02C0295C01C0295A01C0205D1C
:1007F20004FD21C0213360F4A889B9898A899B89C3
:10080200A130E0E0BE07E0E08E07E0E09E0709F4D9
:100812000BC0431740F4531710F000FF01C010C083
:1008220020E207FF08C020E3006102FF04C00E942B
:10083200760609F051500E943206503009F05150AC
:1008420031500E948A060E9421090E945806EC89B2
:10085200A889B9898A899B89FF27662777270E94F9
:10086200F0080E947106E889F9896A897B890E94E9
:10087200570909F0AFCF00FF08C0503031F0515096
:10088200E0E2EA930E944906F8CF10E003CEAE817F
:10089200BF810E9431090E946209EF966F96089506
:1008A200FF92F82E26971A930A93DE0114960E945D
:1008B200C6088D01E0E0EC83ED83EE83EF83DE0179
:1008C20018960E94C6080E943109FA93EA931A9375
:1008D2000A93E0E5F1E0FA93EA93FE013896FA937F
:1008E200EA93BDDD198108812896FF900895EA8177
:1008F200E370EA83E981E03019F0EA81E061EA839A
:10090200E881E03019F0EA81E068EA830E94C406D7
:10091200E0EDEA930E94F806E7E0EA930E94F80607
:10092200EA81EA930E94F8060E94D306239608956C
:10093200E991F991A991B991CD0105900D9200200B
:10094200E1F7FC010895A991B991EE27FF276D9176
:10095200662311F03196FBCF0895AA27BB27E991B0
:10096200F9910590002011F01196FBCFFD01089539
:100972007B816A81F981E88177FB770F67FD71607E
:10098200972F9E5781F078F0983190F4AA27BB27D1
:10099200882708948795B795A7959A95D1F7EA2362
:1009A200FB23682305C0E8947727EE27FF276627F5
:1009B2006F77769508F4606877F9A991B991899172
:1009C2009991EA17FB076807790797FB08950E9438
:1009D20093060E9445090E94B9040E94400919F435
:1009E2000E94930609C0E6F70E949306A0E0B0E0D9
:1009F20080E89FE30E94BC07249608952497E0E0D4
:100A0200E883E983EA83EFE3EB831A930A93EB85A6
:100A1200FC85EF3FAFEFFA0739F40E949606ECED42
:100A2200F0E00E94D205ADC0EF3FAFE7FA0739F41C
:100A32000E949606EDEDF0E00E94D205A2C0AC85C0
:100A4200AA2362F4E985FA856B857C850E941D07DD
:100A52000E949B060E94A006EDE2EC93A885A730B7
:100A620010F0E6E0E8871885E12F1150E03039F008
:100A72000E94A7060E9414060E94AC06F5CF0E94AF
:100A8200B1060E94C3070E949B0610E0E0E0F0E07E
:100A920060E87FE30E94AC060E94B1060E94A608AD
:100AA20088F00E94A7060E9401060E94AC061F5F02
:100AB200173238F00E949606E1EEF0E00E94D2056D
:100AC20060C0EACF103029F40E94A006E0E3EC9364
:100AD2002BC0E12F1150E03039F10E94A7060E948D
:100AE20014060E940D060E9445090E94E8040E9415
:100AF200AC060E94B1060E9461080E9450070E2FA8
:100B02000E94A0060E942206F0E00E94A7060E9410
:100B1200D8080E9489070E9413080E94BA060E9400
:100B220027060E949B06D5CFE885E03031F10E946E
:100B3200A006EEE2EC93E885E150E887EF5FE9F08A
:100B42000E94BA060E9401060E949B06E985FA8568
:100B52006B857C850E9450070E2F0E94A0060E9482
:100B62002206F0E00E94BA060E94D8080E94890775
:100B72000E9427060E949B06DECFAE81BF81E0E085
:100B8200EC93198108812D960895FA93EA9380E0F7
:100B92000E9451042296E8E8F3E1FA93EA930C9456
:100BA2001107FA93EA930C949904AC81BD818E816A
:100BB2009F81E0E0F0E060E271E40E941308EC83C0
:100BC200FD836E837F830895EC81FD816E817F8139
:100BD200AC85BD858E859F850E94A6080895AC854B
:100BE200BD858E859F850895EDECFCEC6CEC7DE374
:100BF2000E941308EC87FD876E877F873F5F089509
:100C0200E0E0F0E060E271E40E9413080895EC87EE
:100C1200FD876E877F870895A0E0B0E080E09FE3C4
:100C22000E94C3070895EDECFCEC6CEC7DE30E949E
:100C320013080895A885B9851196A887B9871197D1
:100C42000895E02FE05DEC93E02F08950E944A0999
:100C52000E94BC070895E885F9853196E887F987EF
:100C620008952A93EF81F885FA93EA93EB85FC8540
:100C720009950895FE01E65AFF4F0190F081E02D9B
:100C820008953497DE01A65ABF4FED93FC93089561
:100C9200EF81F885FA93EA93EB85FC85099508952F
:100CA200DE01A65ABF4F0D90BC91A02D0895EA8790
:100CB200FB876C877D870895DDDFE3CFEA85FB85BF
:100CC2006C857D850895EE87FF87FA93EA930E94EB
:100CD200A4041E2F0895E4DF14960E94310908959A
:100CE200E88BF98B6A8B7B8B08950B7FED89EA93F6
:100CF200FE01E95AFF4F0190F081E02DFA93EA9349
:100D0200FE01E55AFF4F0190F081E02D0995503028
:100D12000895E889F9896A897B89AA85BB858C85CA
:100D22009D8508950E943B090895EE81FF81FA9303
:100D3200EA930895E987FA876B877C870895AE81E5
:100D4200BF811196AE83BF8311970895AA81BB819B
:100D52008C819D810895EA83FB836C837D83089552
:100D6200EA81FB816C817D81A985BA858B859C8511
:100D72000895A985BA858B859C850895A898A99818
:100D8200A09AA19815C0A198A098EE270000999B5F
:100D92000895989B089504D0A19A02D0A09AE1E008
:100DA20069E107C0A19AA09A03D0A098F9DFA1989F
:100DB20061E36A95F1F7089578E0A098F1DF989BD6
:100DC200FECFEEDF889499990894A09AF1DFEE1F86
:100DD2007A9599F77991772311F4A19801C0A19A94
:100DE200DFDFA098E5DFA09ADBDFA198D9CFE991F8
:100DF20078E0EE0F10F4A19801C0A19AD9DFA09873
:100E0200CFDF989BFECFCCDFA09A7A9591F7A1987D
:100E1200C7DFA098CDDFE1E09999EE27A09AC0CF75
:100E2200E991F991309639F086E69EE00197F1F763
:100E3200A8953197C9F7089530976040704009F03E
:100E420070580895552342F4503811F4E0FF04C05D
:100E52003196691F791F6BF050E8572711F45F93A1
:100E6200CFC05F3F31F0660F000C57956795752F25
:100E720008955F9300200AF0CFC0C8C050E8192E31
:100E82001522880F991F9527550F879550E8072E31
:100E92000522660F771F7527550F67950895689489
:100EA20001C0E8945F93F2DF703818F07F3F08F4D6
:100EB200A7C056E1571BAAF4519558300EF4593089
:100EC20030F0EFEFFFEF6FEF7FE777F91AC0772788
:100ED2005523B9F0EE0FFF1F661F771F5A95D1F702
:100EE20010C07727583028F0EF2FF62F672F585071
:100EF200F9CF552331F076956795F795E7955A9591
:100F0200D1F700200AF445D15F910895689401C099
:100F1200E894309760407040B1F0002426F07723C7
:100F220012F4009436D1172E7EE1112032F07A9518
:100F3200EE0FFF1F661F111CF9CFEF2FF62F612D49
:100F42005F938ADF5F9108954F93AF01FD01DA014C
:100F5200AB01BC01CA01402D012C142E4F91089502
:100F6200EA0FFB1F681F0895E095F0956095EF5F0B
:100F7200FF4F6F4F08955F9381DF903871F150E812
:100F8200152604C05F937ADF903839F1703821F169
:100F9200572F591B2BF112F4D7DFFACF583118F023
:100FA200AA27BB278827583028F0AB2FB82F8827CD
:100FB2005850F9CF552329F08695B795A7955A959C
:100FC200D9F7502D512572F0CBDF38F46795F7959C
:100FD200E795739513F420C0B7DF3EDF5F91089564
:100FE200D8F7FBCFEA1BFB0B680B51F010F400940F
:100FF200BBDF662392F3EE0FFF1F661F7A95CBF7D6
:10100200EE27FF27662777275F910895EFEFFFEF1F
:101012006FE77FEF5F910895EFEFFFEF6FE77FE7F5
:101022005F9108955F932ADF703851F3903841F34E
:1010320001240894791F23F41CF300203AF3ECCF27
:101042000F921F932F933F934F9311272227992794
:10105200689FA0018F9F302D410D591F6B9F300D4E
:10106200411D591F8E9F27D0BF9F25D06A9F23D035
:10107200BE9F1DD0AF9F1BD0AE9F110D291F391FE0
:10108200491F591FE32FF42F652F522F4F913F9184
:101092002F911F910F9066232AF0550FEE1FFF1F0D
:1010A200661F02C073954BF2CDDE5F910895100D5D
:1010B200211D391F02C0200D311D491F591F0895DE
:1010C2005F93DCDE703821F411200AF49FCFA4CFA5
:1010D200903809F495CF01240894970B1BF4D4F3AC
:1010E2000020F3CF792F1F932F933F934F93112417
:1010F2001127222733274427552790E2AE17BF072F
:101102008607410730F0AE1BBF0B860B410B0894DC
:1011120001C08894551F221F331F111CAA1FBB1F19
:10112200881F441F9A9551F7F901612D4F913F9104
:101132002F911F91662332F0550FEE1FFF1F661F7E
:101142007A9543F27FDE5F91089599239AF077238F
:1011520042F0971748F029F4AE17BF07860720F030
:1011620031F0989488940895989408940895189466
:10117200889408957723C2F7971798F3A9F7EA1787
:10118200FB07680788F399F3ECCF0024AF0DB01D7D
:101192000895F09560957095E195FF4F6F4F7F4FE1
:1011A2000895FE2FFF0FFF0B6F2F7F2F08956F2FD4
:1011B200660F660B762F0895002498E0AA0F001C94
:1011C2000E1A10F40E0E01C0A1609A95B9F7EA2F1B
:1011D200A02D089539D0F0DF0EF4E19508953F93E4
:1011E2004F935F93002411244427552730E2AA0F1E
:1011F200BB1F881F991F001C111C441F551F0E1A6C
:101202001F0A460B570B28F40E0E1F1E461F571FB0
:1012120001C0A1603A9559F7FD01BC01D001CA0194
:101222005F914F913F910895E894A7FF02C0A19565
:101232006894E7FDE195C0DFEA2F0EF4E195089589
:10124200CEDFFD01BC010895E894E7FF02C0E195FD
:101252006894A7FF04C0A19500F8039400FA0895CA
:10126200ED91FC9111970895ED91FD916D917C9115
:1012720013970895E881F9816A817B810895E88353
:10128200F9836A837B8308957A936A93FA93EA9344
:101292000895182E862F612D192E972F712D1B2E32
:1012A200BF2FF12D1A2EAE2FE12D089530976040F9
:1012B200704008955A934A933A932A931A930A9341
:1012C20008955D814C813B812A81198108810895AD
:00000001FF
